S00B000050574D2E7372656325
S11300000C942A000C9447000C9447000C9447006D
S11300100C9447000C9447000C9447000C94470040
S11300200C9447000C9447000C9442040C9407046D
S11300300C9447000C9447000C9447000C94470020
S11300400C9447000C9447000C9447000C94470010
S11300500C94470011241FBECFE5D8E0DEBFCDBF0E
S113006010E0A0E6B0E0EAEFFDE002C005900D92DA
S1130070AC38B107D9F720E0ACE8B0E001C01D927C
S1130080A639B207E1F70E945E030C94FB060C94B8
S11300900000813019F130F08230E1F1833009F44D
S11300A055C00895442319F0413069F008952AB3E6
S11300B081E090E002C0880F991F6A95E2F780956D
S11300C082238ABB08952AB381E090E002C0880F9E
S11300D0991F6A95E2F7822B8ABB0895442319F08D
S11300E0413069F0089527B381E090E002C0880FA1
S11300F0991F6A95E2F78095822387BB089527B3F9
S113010081E090E002C0880F991F6A95E2F7822B84
S113011087BB0895442319F0413069F0089524B34E
S113012081E090E002C0880F991F6A95E2F78095FC
S1130130822384BB089524B381E090E002C0880F39
S1130140991F6A95E2F7822B84BB0895442319F022
S1130150413069F0089521B381E090E002C0880F36
S1130160991F6A95E2F78095822381BB089521B394
S113017081E090E002C0880F991F6A95E2F7822B14
S113018081BB0895813019F130F08230E1F1833080
S113019009F455C00895442319F0413069F00895D5
S11301A02BB381E090E002C0880F991F6A95E2F7B3
S11301B0809582238BBB08952BB381E090E002C02D
S11301C0880F991F6A95E2F7822B8BBB089544230D
S11301D019F0413069F0089528B381E090E002C03D
S11301E0880F991F6A95E2F78095822388BB08954A
S11301F028B381E090E002C0880F991F6A95E2F766
S1130200822B88BB0895442319F0413069F0089586
S113021025B381E090E002C0880F991F6A95E2F748
S11302208095822385BB089525B381E090E002C0C8
S1130230880F991F6A95E2F7822B85BB08954423A2
S113024019F0413069F0089522B381E090E002C0D2
S1130250880F991F6A95E2F78095822382BB0895DF
S113026022B381E090E002C0880F991F6A95E2F7FB
S1130270822B82BB0895CF93C82F482F417064E02E
S113028080E00E94C200C1FB442740F965E080E0A1
S11302900E94C200C2FB442740F966E080E00E944D
S11302A0C200C3FB442740F967E080E00E94C2001B
S11302B0CF91089541E063E081E00E94C2008FE99C
S11302C09FE00197F1F700C0000040E063E081E0A7
S11302D00E94C2000895CF93C82F40E062E081E0FD
S11302E00E94C20040E061E081E00E94C2008C2FC5
S11302F082958F700E943B010E945A018C2F0E94AC
S11303003B010E945A01CF91089541E064E080E0EE
S11303100E94490041E065E080E00E94490041E01C
S113032066E080E00E94490041E067E080E00E94CE
S1130330490041E062E081E00E94490041E061E05F
S113034081E00E94490041E063E081E00E944900AD
S11303502FEF83EF91E0215080409040E1F700C0FF
S1130360000040E062E081E00E94C20040E061E001
S113037081E00E94C20082E00E943B010E945A0177
S113038088E20E946B0120EF2A95F1F78FE00E942A
S11303906B0180EF8A95F1F781E00E946B018FE396
S11303A09FE10197F1F700C0000086E00E946B0115
S11303B00895CF93C82F40E062E081E00E94C2001C
S11303C041E061E081E00E94C2008C2F82958F7031
S11303D00E943B010E945A018C2F0E943B010E9403
S11303E05A01CF9108950F931F93CF93009729F447
S11303F00CC00E94D901CF5F02C08C01C0E0F8019B
S1130400EC0FF11D80818111F4CFCF911F910F91D9
S11304100895CF92DF92EF92FF920F931F938B0177
S11304209C01672B682B692B49F580E30E94D90155
S113043045C0DC01CB01880F991FAA1FBB1F6C01AB
S11304407D01CC0CDD1CEE1CFF1CCC0CDD1CEE1C59
S1130450FF1CC80ED91EEA1EFB1EC901B8012AE002
S113046030E040E050E00E94D9066C0D7D1D8E1DE9
S11304709F1D022F132F242F352F04C061E070E03D
S113048080E090E0011511052105310591F62AE07F
S113049030E040E050E00E94D906E22EF32E042F13
S11304A0152F80E3860F0E94D9016E2D7F2D802F9A
S11304B0912F613071058105910549F71F910F91C5
S11304C0FF90EF90DF90CF90089581E00E946B0140
S11304D08FE39FE10197F1F700C00000089588239E
S11304E019F0813049F0089580E8860F0E946B016D
S11304F080EF8A95F1F7089580EC860F0E946B01D6
S113050080EF8A95F1F708958F929F92AF92BF92F0
S1130510CF92DF92EF92FF924B015C010E945E0545
S11305206B017C010E948D059B01AC01C501B401E6
S11305300E947F0420E030E048EC52E40E94200650
S11305400E945E054B015C01C701B6010E940902CD
S11305508EE20E94D901C501B4010E940902FF90F4
S1130560EF90DF90CF90BF90AF909F908F900895C1
S11305708F929F92AF92BF92CF92DF92EF92FF92AF
S11305801F93CF93DF93C82F682F70E080E090E033
S11305900E948F0520E030E048EC52E40E94EC0415
S11305A06B017C012FE632E143E85FE30E94200601
S11305B04B015C010E94650280E690E00E94F30119
S11305C060E070E08AE79FE30E9484028BE690E09B
S11305D00E94F30180E790E00E94F3016C2F70E029
S11305E080E090E00E94090285E20E94D90160E067
S11305F081E00E946F028DE790E00E94F30120E009
S113060030E040E850E4C701B6010E9420066B01C7
S11306107C019B01AC0160E070E080E890E40E9402
S11306207F040E945E05D62F10E01DC080EB0E945F
S1130630D901CF5F01C0C0E06C2F70E080E090E092
S11306400E948F059B01AC01C701B6010E941B06E5
S1130650181664F3C0E004C08FE50E94D901CF5F8F
S1130660CD17D0F31F5F153030F382E890E00E947D
S1130670F301C501B4010E94840289E890E00E945C
S1130680F301C0E00DC02FEF89E698E121508040CE
S11306909040E1F700C0000088E10E946B01CF5F49
S11306A0C43188F3DF91CF911F91FF90EF90DF90D9
S11306B0CF90BF90AF909F908F900895CF93DF938A
S11306C01F92CDB7DEB719820E94850141E067E031
S11306D083E00E94490040E066E083E00E94490014
S11306E012BE83E083BF0E94860382E30E949803C4
S11306F0CE0101960E94AC038981811104C082E37A
S11307000E94B802F5CF0E94B802F2CF41E067E040
S113071083E00E94490085B5806485BD85B5886005
S113072085BD85B58F7E85BD85B5806285BD0895FF
S1130730853688F4982F80E064E670E00E94C50650
S1130740615063BD85B5816085BD85B5826085BD19
S113075085B58B7F85BD0895CF93DF93EC0140E091
S113076066E083E00E94490083E48EBD80E593EC5B
S113077001C0019708B605FC02C00097D1F7892B88
S113078011F4188241C026B537B588B7806288BF96
S11307908EB58F7B8EBD80E593EC01C0019708B6C2
S11307A005FC02C00097D1F7892B11F418822CC0E4
S11307B046B557B588B7806288BF8EB580648EBD54
S11307C080E593EC01C0019708B605FC02C00097D0
S11307D0D1F7892B11F4188217C066B577B5621B5F
S11307E0730B88B7806288BF421B530B6115710578
S11307F011F4188209C024E6249FC001259F900D9E
S113080011240E94B1066883DF91CF9108951F924D
S11308100F920FB60F9211242F933F934F935F9330
S11308206F937F938F939F93AF93BF93EF93FF93B4
S113083080918E0090918F00019690938F00809309
S11308408E008A38994069F48AE982BF10928F0039
S113085010928E00E0919400F0919500309709F089
S11308600995FF91EF91BF91AF919F918F917F91E6
S11308706F915F914F913F912F910F900FBE0F9009
S11308801F9018951F920F920FB60F9211242F9359
S11308903F934F935F936F937F938F939F93AF9304
S11308A0BF93EF93FF9380918C0090918D000196FC
S11308B090938D0080938C00209190003091910052
S11308C08217930759F410928D0010928C00E091D6
S11308D09200F0919300309709F00995FF91EF9100
S11308E0BF91AF919F918F917F916F915F914F9144
S11308F03F912F910F900FBE0F901F901895505855
S1130900BB27AA270E9497040C94E1050E94D305F3
S113091038F00E94DA0520F039F49F3F19F426F4E8
S11309200C94D0050EF4E095E7FB0C94CA05E92F6E
S11309300E94F20558F3BA176207730784079507F4
S113094020F079F4A6F50C9414060EF4E0950B2E21
S1130950BA2FA02D0B01B90190010C01CA01A0010D
S11309601124FF27591B99F0593F50F4503E68F168
S11309701A16F040A22F232F342F4427585FF3CFA9
S1130980469537952795A795F0405395C9F77EF47A
S11309901F16BA0B620B730B840BBAF09150A1F0C3
S11309A0FF0FBB1F661F771F881FC2F70EC0BA0F49
S11309B0621F731F841F48F4879577956795B795D1
S11309C0F7959E3F08F0B0CF9395880F08F09927CC
S11309D0EE0F9795879508950E9400050C94E10504
S11309E00E94DA0558F00E94D30540F029F45F3FD5
S11309F029F00C94CA0551110C9415060C94D005D9
S1130A000E94F20568F39923B1F3552391F3951BE2
S1130A10550BBB27AA2762177307840738F09F5F1B
S1130A205F4F220F331F441FAA1FA9F335D00E2E88
S1130A303AF0E0E832D091505040E695001CCAF7F5
S1130A402BD0FE2F29D0660F771F881FBB1F2617B8
S1130A5037074807AB07B0E809F0BB0B802DBF018F
S1130A60FF2793585F4F3AF09E3F510578F00C945E
S1130A70CA050C9415065F3FE4F3983ED4F38695BB
S1130A8077956795B795F7959F5FC9F7880F911D7F
S1130A909695879597F90895E1E0660F771F881F6B
S1130AA0BB1F621773078407BA0720F0621B730B1E
S1130AB0840BBA0BEE1F88F7E09508950E94FA059F
S1130AC088F09F5798F0B92F9927B751B0F0E1F00B
S1130AD0660F771F881F991F1AF0BA95C9F714C0BB
S1130AE0B13091F00E941406B1E008950C941406FC
S1130AF0672F782F8827B85F39F0B93FCCF38695F4
S1130B0077956795B395D9F73EF490958095709550
S1130B1061957F4F8F4F9F4F0895E89409C097FBCD
S1130B203EF490958095709561957F4F8F4F9F4FC0
S1130B309923A9F0F92F96E9BB279395F695879504
S1130B4077956795B795F111F8CFFAF4BB0F11F4C7
S1130B5060FF1BC06F5F7F4F8F4F9F4F16C088236E
S1130B6011F096E911C0772321F09EE8872F762FA4
S1130B7005C0662371F096E8862F70E060E02AF0E5
S1130B809A95660F771F881FDAF7880F96958795D1
S1130B9097F9089597F99F6780E870E060E00895F9
S1130BA09FEF80EC089500240A9416161706180681
S1130BB00906089500240A9412161306140605065D
S1130BC00895092E0394000C11F4882352F0BB0FEE
S1130BD040F4BF2B11F460FF04C06F5F7F4F8F4F51
S1130BE09F4F089557FD9058440F551F59F05F3F8C
S1130BF071F04795880F97FB991F61F09F3F79F03B
S1130C0087950895121613061406551FF2CF4695BC
S1130C10F1DF08C0161617061806991FF1CF86953E
S1130C207105610508940895E894BB276627772722
S1130C30CB0197F908950E948D0608F48FEF08956B
S1130C400E9433060C94E1050E94D30538F00E94FB
S1130C50DA0520F0952311F00C94CA050C94D00504
S1130C6011240C9415060E94F20570F3959FC1F3AC
S1130C70950F50E0551F629FF001729FBB27F00D46
S1130C80B11D639FAA27F00DB11DAA1F649F66279B
S1130C90B00DA11D661F829F2227B00DA11D621FEA
S1130CA0739FB00DA11D621F839FA00D611D221FA4
S1130CB0749F3327A00D611D231F849F600D211D88
S1130CC0822F762F6A2F11249F5750409AF0F1F00B
S1130CD088234AF0EE0FFF1FBB1F661F771F881F74
S1130CE091505040A9F79E3F510580F00C94CA05DD
S1130CF00C9415065F3FE4F3983ED4F386957795FC
S1130D006795B795F795E7959F5FC1F7FE2B880F19
S1130D10911D9695879597F90895990F0008550F99
S1130D20AA0BE0E8FEEF16161706E807F907C0F06D
S1130D3012161306E407F50798F0621B730B840B75
S1130D40950B39F40A2661F0232B242B252B21F44F
S1130D5008950A2609F4A140A6958FEF811D811DEF
S1130D600895AA1BBB1B51E107C0AA1FBB1FA617EE
S1130D70B70710F0A61BB70B881F991F5A95A9F740
S1130D8080959095BC01CD01089597FB072E16F42C
S1130D90009407D077FD09D00E94B10607FC05D066
S1130DA03EF4909581959F4F0895709561957F4F7E
S1130DB00895A1E21A2EAA1BBB1BFD010DC0AA1F98
S1130DC0BB1FEE1FFF1FA217B307E407F50720F0B0
S1130DD0A21BB30BE40BF50B661F771F881F991F2B
S1130DE01A9469F760957095809590959B01AC0174
S10D0DF0BD01CF010895F894FFCF70
S1130DFA4672657175656E63793A004B487A2000CC
S1130E0A2044757479204379636C653A0050574DD0
S10F0E1A3A002054494D453A006D730025
S9030000FC
